:100000000C94C9000C9470190C949D190C9408045C
:100010000C9432040C945C040C94F1000C94F100E8
:100020000C94F1000C94F1000C94F1000C94F1008C
:100030000C94F1000C94F1000C94F1000C94F1007C
:100040000C94CA190C94F1000C944E1B0C94F10002
:100050000C94F1000C94F1000C94F1000C94F1005C
:100060000C94F1000C94F10000C201000100110099
:1000700011000D0000E100000A002500250022000B
:10008000009600001900390039003600127A00008D
:100090001F004600460044008070000022004D0012
:1000A0004D004A00004B00003600750075007200DC
:1000B000403800004A009C009C0099008025000008
:1000C0007200EC00EC00E900C0120000E900DA0167
:1000D000DA01D70160090000D701B603B603B30304
:1000E000B0040000B3036E076E076B072C0100001D
:1000F000DC0EC11DC11DBE1D000000002400270034
:100100002A0000000000250028002B00000000004D
:100110002300260029000404040404040404020249
:100120000202020203030303030301020408102076
:100130004080010204081020010204081020000081
:100140000007000201000003040600000000000098
:100150000000494E46494E4954594E414ECDCCCCF3
:100160003D0AD7233C17B7D13877CC2B329595E68B
:10017000241FB14F0A000020410000C84200401C6B
:100180004620BCBE4CCA1B0E5AAEC59D7400A70FBC
:10019000971C11241FBECFEFD8E0DEBFCDBF12E009
:1001A000A0E0B1E0ECEFF1E402C005900D92A43BB9
:1001B000B107D9F713E0A4EBB2E001C01D92AD3B4B
:1001C000B107E1F711E0C2E9D1E004C02297FE01D6
:1001D0000E94B620CE38D107C9F70E9446190C9468
:1001E000FC200C940000CF93DF93BC01823091057A
:1001F00010F462E070E0A091B903B091BA03ED0190
:10020000E0E0F0E040E050E021C08881998186176D
:10021000970769F48A819B81309719F093838283D1
:1002200004C09093BA038093B903FE0134C06817E9
:10023000790738F44115510519F08417950708F42A
:10024000AC01FE018A819B819C01E9012097E9F6BE
:1002500041155105A9F1CA01861B970B049708F4B3
:10026000BA01E0E0F0E02AC08D919C9111978417CB
:100270009507F9F46417750781F412968D919C9196
:100280001397309719F09383828304C09093BA0335
:100290008093B903FD0132964CC0CA01861B970BAF
:1002A000FD01E80FF91F6193719302978D939C9361
:1002B00040C0FD01828193819C01D9011097A1F674
:1002C0008091B7039091B803892B41F4809171021A
:1002D000909172029093B8038093B7034091730298
:1002E000509174024115510541F44DB75EB78091AC
:1002F0006F0290917002481B590B2091B703309107
:10030000B803CA01821B930B8617970780F0AB01D5
:100310004E5F5F4F8417950750F0420F531F509365
:10032000B8034093B703F9016193719302C0E0E011
:10033000F0E0CF01DF91CF910895CF93DF93009745
:1003400009F450C0EC0122971B821A82A091B903D4
:10035000B091BA03109709F140E050E0AC17BD0727
:1003600008F1BB83AA83FE0121913191E20FF31FB3
:10037000AE17BF0779F48D919C911197280F391F03
:100380002E5F3F4F3983288312968D919C9113974E
:100390009B838A834115510571F4D093BA03C093AE
:1003A000B90320C012968D919C911397AD010097CF
:1003B00011F0DC01D3CFFA01D383C28321913191B3
:1003C000E20FF31FCE17DF0769F488819981280FA8
:1003D000391F2E5F3F4FFA01318320838A819B8131
:1003E00093838283DF91CF910895662777270C94BA
:1003F000390244EB52E00E9407020895FB01DC0140
:100400008D91019080190110D9F3990B08950097EF
:1004100031F4DA018D919C91009709F40EC0DC0152
:10042000FB013D912191222319F03217C9F3FACF34
:10043000332331F4DA011D921C92882799270895FD
:100440001197AF93BF93FB013D912191321771F446
:10045000332321F488279927119702C01E92119601
:10046000FA01A193B0839F918F910895222369F798
:10047000EACFA0E0B0E0EFE3F2E00C94CB20EC0197
:100480005B016115710519F0FB0191838083F9907F
:100490008F2D90E00E94BA20892BC9F7FDE2FF164C
:1004A00021F4F990EE24E39405C02BE2F21609F44E
:1004B000F990EE248E0101501040C80162E571E010
:1004C00043E050E00E949903892B01F58E010E5FF5
:1004D0001F4FC80165E571E045E050E00E949903B7
:1004E000892B19F48E01095F1F4FA114B10419F073
:1004F000F50111830083E0FC04C070E090E080E827
:1005000014C070E090E080E86FEF08C1C8016AE5B0
:1005100071E043E050E00E949903892B69F4A11433
:10052000B10429F470E090E080EC6FE7F7C0229608
:10053000F501D183C083F6CF8824992440E050E0B0
:1005400060E070E0EF2DE053EA30A0F5F2E0EF2A32
:100550008E2D90E09C0128703070E2FE06C0232BA7
:1005600079F50894811C911C2BC0232B19F0089459
:1005700081089108DB01CA0112E0880F991FAA1FA8
:10058000BB1F1A95D1F7480F591F6A1F7B1F440FD5
:10059000551F661F771F4E0F511D611D711D483974
:1005A00029E9520729E9620729E1720748F084E046
:1005B000E82A06C0EE3F31F4E3FC39C098E0E92AAE
:1005C000F990C0CFE53311F0E53189F529912D324D
:1005D00019F4E0E1EE2A05C02B3219F081E090E039
:1005E00003C0299182E090E0E22FE053EA3018F056
:1005F000C81BD90B1CC020E030E0FCE020383F07CE
:100600005CF4C901880F991F880F991F280F391FA3
:10061000220F331F2E0F311DE991E053EA3068F3AA
:10062000E4FE03C0309521953F4F820E931ECE2CE1
:10063000DD24E1FE07C0A114B10421F02197F501EA
:10064000D183C083CB01BA010E94181F7B018C01AA
:10065000F3E0CF22DD2423E0C216D10421F417FBFE
:10066000109517F9109557016801C801B70120E0EE
:1006700030E040E050E00E947B1E882309F44AC02D
:1006800097FE0DC021E7E22E21E0F22E9094819496
:1006900091089394C0E2D0E000E010E012C099E825
:1006A000E92E91E0F92EF6CFF7012591359145918C
:1006B0005491C601B5010E94CE1F5B016C018C1ADA
:1006C0009D0A8C169D0684F7D595C7950F5F1F4F21
:1006D0000630110529F08CEF9FEFE80EF91EF1CFDF
:1006E000C501D6017C018D018C2D880F8D2D881FB1
:1006F0008F3F51F0C601B50120E030E040E050E00E
:100700000E947B1E882331F482E290E09093BC0328
:100710008093BB037E2D9F2D802F612F272F392F94
:10072000482F562FB901CA01CDB7DEB7ECE00C94C3
:10073000E720FB01DC014150504088F08D9181346D
:100740001CF08B350CF4805E659161341CF06B35C8
:100750000CF4605E861B611171F3990B0895881B80
:10076000FCCF1F93CF93DF93FC01A481B5812C9123
:100770007381272309F048C08185928501972FEF67
:100780008F3F9207D9F7C385D48560E031E040E020
:1007900050E010E0CE01212F01972FEF8F3F9207FD
:1007A000D9F78C91872311F0632B03C0832F809599
:1007B0006823330F4F5F5F4F4830510559F78585E8
:1007C000968520E001972FEF8F3F9207D9F7809110
:1007D000F8022091F90290E001968F73907030E05A
:1007E0008217930779F0E091F802F0E0E854FD4FAA
:1007F00060838091F80290E001968F7390708093EF
:10080000F80202C081E0818BDF91CF911F910895A2
:100810001F920F920FB60F9211242F933F934F9375
:100820005F936F937F938F939F93AF93BF93EF9358
:10083000FF938091B6029091B702009711F00E9449
:10084000B103FF91EF91BF91AF919F918F917F91F4
:100850006F915F914F913F912F910F900FBE0F902D
:100860001F9018951F920F920FB60F9211242F937D
:100870003F934F935F936F937F938F939F93AF9328
:10088000BF93EF93FF938091B6029091B7020097C8
:1008900011F00E94B103FF91EF91BF91AF919F9131
:1008A0008F917F916F915F914F913F912F910F9019
:1008B0000FBE0F901F9018951F920F920FB60F92B8
:1008C00011242F933F934F935F936F937F938F9355
:1008D0009F93AF93BF93EF93FF938091B602909154
:1008E000B702009711F00E94B103FF91EF91BF9101
:1008F000AF919F918F917F916F915F914F913F91B8
:100900002F910F900FBE0F901F901895CF92DF92EE
:10091000EF92FF920F931F93CF93DF93EC017A0135
:100920008B01188A1F861E861D861C861B861A86CA
:10093000198620E030E06901CC0CDD1CC20ED31E0C
:10094000B601660F771F660F771FAB0148595F4FDF
:10095000FA0185919591A591B4918E159F05A007F7
:10096000B107E9F4FB01E459FF4F859194919A870F
:100970008987FB01E259FF4F859194919C878B8772
:10098000FB01E059FF4F859194919E878D87FB0174
:10099000EE58FF4F85919491988B8F8706C02F5FFB
:1009A0003F4F2C30310509F0C6CF8D859E85892BB0
:1009B00009F44CC03A81383090F48091680084602A
:1009C0008093680020916D0081E090E002C0880F64
:1009D000991F3A95E2F7282B20936D002FC03E30E7
:1009E000B0F48091680081608093680040916B0052
:1009F000232F30E02850304081E090E002C0880F83
:100A0000991F2A95E2F7482B40936B0017C03631A7
:100A1000A8F48091680082608093680040916C0027
:100A2000232F30E02E50304081E090E002C0880F4C
:100A3000991F2A95E2F7482B40936C008F8598897F
:100A400020E001972FEF8F3F9207D9F78091B602F0
:100A50009091B7028C179D0771F0198A9FB7F8948F
:100A60001092F8028091F8028093F902D093B702B5
:100A7000C093B6029FBFDF91CF911F910F91FF905E
:100A8000EF90DF90CF900895FC018091B602909195
:100A9000B7028E179F0779F0118A9FB7F8941092CA
:100AA000F8028091F8028093F902F093B702E09384
:100AB000B6029FBF06C09091F9028091F802981784
:100AC00019F42FEF3FEF0FC0E091F902F0E0E85486
:100AD000FD4F20818091F90290E001968F73907014
:100AE0008093F90230E0C9010895FC018091B602BB
:100AF0009091B7028E179F0781F0118A9FB7F894E3
:100B00001092F8028091F8028093F902F093B702F4
:100B1000E093B6029FBF80E008958091F802209193
:100B2000F90290E0805C9F4F821B910960E470E0C5
:100B30000E94502008950F931F93DC011F968D9102
:100B40009C915097892B09F46EC08091B6029091C8
:100B5000B7028A179B0781F051961C9251979FB755
:100B6000F8941092F8028091F8028093F902B09301
:100B7000B702A093B6029FBF1FB7F8941796ED91E6
:100B8000FC911897908116968C91169780958923E1
:100B900080831F968D919C915097059620E0019738
:100BA0002FEF8F3F9207D9F731E040E050E070E03F
:100BB00000E0832F90E0862397231796ED91FC9118
:100BC000189716962C911697892B21F08081822BED
:100BD000808304C080812095282320831F968D91D7
:100BE0009C915097202F01972FEF8F3F9207D9F7B5
:100BF000330F4F5F5F4F48305105D9F61796ED918F
:100C0000FC911897808116969C911697892B80836A
:100C10001FBF1F968D919C91509720E001972FEF59
:100C20008F3F9207D9F71F910F910895FF920F936D
:100C30001F938C01F62E862F60E00E94921A8F2D52
:100C400061E00E94B21AD8011296FC9212978F2D81
:100C500090E0FC01E65DFE4FE4911396EC93139750
:100C60008A5E9E4FFC016491E62FF0E0EE0FFF1FBD
:100C7000E45FFE4F8591949115969C938E93149703
:100C80001F910F91FF900895FF920F931F938C0176
:100C9000F62E862F61E00E94921A8F2D61E00E944D
:100CA000B21A8F2D90E0FC01E65DFE4FE491D80171
:100CB0001696EC9316978A5E9E4FFC016491E62F80
:100CC000F0E0EE0FFF1FEE5FFE4F859194911896B6
:100CD0009C938E9317971F910F91FF900895FF9209
:100CE0000F931F938C01F62E87E892E0F801918311
:100CF0008083128611861486138616861586108ABE
:100D00001786118AC801642F0E944406C8016F2DFE
:100D10000E9416061F910F91FF9008950F931F9345
:100D20008C01FC01848160E00E94B21A81E090E0B5
:100D30000E944A1AF801848161E00E94B21A81E09F
:100D400090E00E944A1AF801848160E00E94B21A81
:100D500084E690E00E944A1A1F910F910895CF9265
:100D6000DF92EF92FF920F931F93CF93DF93D82ED2
:100D7000C92E282F392FC9018C01C0E0D0E0E62E02
:100D8000FF24F801858161E00E94921AB7010C2EC0
:100D900002C0759567950A94E2F76170F801858144
:100DA0000E94B21A21960F5F1F4FC830D10549F734
:100DB0008D2D9C2D0E948E06DF91CF911F910F915A
:100DC000FF90EF90DF90CF900895CF92DF92EF9257
:100DD000FF920F931F93CF93DF93D82EC92E282F06
:100DE000392FC9018C01C0E0D0E0E62EFF24F801C4
:100DF000858161E00E94921AB7010C2E02C07595A0
:100E000067950A94E2F76170F80185810E94B21A31
:100E100021960F5F1F4FC430D10549F78D2D9C2DB2
:100E20000E948E06DF91CF911F910F91FF90EF905E
:100E3000DF90CF9008951F93CF93DF93EC01162F8F
:100E40008A81642F0E94B21A8B8160E00E94B21ADC
:100E50008D8584FF05C0CE01612F0E94AF060EC0B4
:100E6000612F70E084E0759567958A95E1F7CE0172
:100E70000E94E506CE01612F0E94E506DF91CF9129
:100E80001F91089541E00E941B07089540E00E94D1
:100E90001B070895FC016685862F846086876C6039
:100EA000CF010E9446070895DF93CF93CDB7DEB7F9
:100EB00028970FB6F894DEBF0FBECDBF9C01FE0190
:100EC0003196A7E9B2E088E00D9001928150E1F7F8
:100ED000F9018189841710F4482F4150E42FF0E084
:100EE000EE0FFF1FEC0FFD1F8181680F6068C901C5
:100EF0000E94460728960FB6F894DEBF0FBECDBFFE
:100F0000CF91DF91089561E00E94460780ED97E060
:100F10000E944A1A0895CF93DF93EC01423018F0F3
:100F20008D8588608D87498B1A8A222329F041306C
:100F300019F48D8584608D8780E593EC0E944A1AB0
:100F40008A8160E00E94B21A8C8160E00E94B21A2D
:100F50008B8160E00E94B21A6D8564FD1DC0CE01D8
:100F600063E00E94E50684E991E10E944A1ACE01FD
:100F700063E00E94E50684E991E10E944A1ACE01ED
:100F800063E00E94E50686E990E00E944A1ACE01DD
:100F900062E00E94E50616C06062CE010E9446072C
:100FA00084E991E10E944A1A6D856062CE010E9437
:100FB000460786E990E00E944A1A6D856062CE017C
:100FC0000E9446076D856062CE010E94460784E05C
:100FD0008E87CE010E944A07CE010E94830782E0DD
:100FE0008F87CE0166E00E944607DF91CF9108957A
:100FF0006F927F928F92AF92CF92EF920F931F9347
:10100000DF93CF93CDB7DEB73C01162F842FF301CA
:10101000428323830483E582C682A78280869D85DE
:1010200091879E8592879F8593879889948761E0B1
:101030000E94921AF301838161E00E94921AF301E7
:10104000848161E00E94921A112319F0F301158640
:1010500003C080E1F3018587C30160E141E020E046
:101060000E948B07CF91DF911F910F91EF90CF904E
:10107000AF908F907F906F9008958F92AF92CF92A4
:10108000EF920F931F93CF93DF93DC01362F542FF2
:10109000722F102FAE2C8C2C81E992E011969C932C
:1010A0008E9300D000D0EDB7FEB73196CDB7DEB746
:1010B0001982118212821382CD0161E0432F2FEF3A
:1010C000052FE72EC12E0E94F8070F900F900F906A
:1010D0000F90DF91CF911F910F91EF90CF90AF9034
:1010E0008F900895FC0183EA92E09183808374835A
:1010F0006383568345838FEF82830895FC01828149
:101100008F3F11F480E008950E94D30D0895EF926F
:10111000FF920F931F93CF93DF93EC018A818F3F50
:1011200089F10E94EB090E94121A7B018C01CE0109
:101130000E947E08882301F10E94121A6E197F090D
:10114000800B910B685E734080409040A8F461E092
:1011500070E080E090E00E94201AE9CF8A810E942E
:101160005F0AEA81F0E0EE0FFF1FE450FD4F1182AD
:1011700010828FEF8A8306C0CE010E947E088823EA
:1011800081F3ECCFDF91CF911F910F91FF90EF9002
:101190000895FC0182818F3F19F420E030E003C004
:1011A0000E941D0E9C01C90108950F931F93DF93A8
:1011B000CF930F92CDB7DEB78C010E94C908892B5F
:1011C00019F42FEF3FEF0CC0F8018281BE016F5F71
:1011D0007F4F41E050E00E94E20A8981282F30E0F1
:1011E000C9010F90CF91DF911F910F910895CF9377
:1011F000DF93EC0103C0CE010E94D508CE010E940E
:10120000C908892BC1F7DF91CF910895FC01828134
:101210008F3F11F00E94060B0895DF93CF930F923A
:10122000CDB7DEB76983FC0182818F3F39F0BE0103
:101230006F5F7F4F41E050E00E94060B0F90CF910F
:10124000DF910895FC0182818F3F51F0DB010D9009
:101250000020E9F71197A61BB70BAD010E94060B02
:1012600008950F931F93CF93DF938C01FC0182812C
:101270008F3F09F04EC0C0E0D0E08C2F0E94D30D0C
:10128000882311F0883119F4F801C28304C0219633
:10129000C430D10591F7F80122812F3FD1F180911F
:1012A000FA029091FB0201969093FB028093FA025E
:1012B00080509C4F21F41092FB021092FA02409150
:1012C000FA025091FB0240505C4F822F61E020E017
:1012D0000E947E0AF8016381748145815681828172
:1012E0000E94FE0909C061E070E080E090E00E9489
:1012F000201AC8010E947E08882321F48FEFF8018C
:10130000828307C0C8010E947E08873161F781E0AF
:1013100001C080E0DF91CF911F910F910895AF92AE
:10132000BF92CF92DF92EF92FF920F931F937B01B8
:101330006A0159010E944B0D85E565E50E94160C76
:10134000C7010E948B0DC6010E94B50DC5010E9408
:101350004F0DC8010E946D0D1F910F91FF90EF90EE
:10136000DF90CF90BF90AF9008950F931F93DF93BE
:10137000CF9300D000D0CDB7DEB7EFEFE983EA839B
:10138000EB831C828E010F5F1F4F0E948F090F900D
:101390000F900F900F90CF91DF911F910F910895B3
:1013A000DF93CF9300D000D0CDB7DEB7FA01208114
:1013B000298321812A8322812B8321E02C839E0192
:1013C0002F5F3F4F0E94B5090F900F900F900F9025
:1013D000CF91DF910895CF93DF9390E0D82FCC2762
:1013E000CF5FDB4FCE0168E00E947F0BCE010E94F1
:1013F0009E0B8823D9F7DF91CF910895CF92DF928A
:10140000EF92FF920F931F93CF93DF93082FEB017F
:101410006A0168816F3F51F489818F3F91F48A811D
:101420008F3F79F48B818F3F61F43FC0662349F48D
:101430008981882331F48A81882319F48B81882358
:10144000A1F1C114D10489F110E00C5F1F4FF02EFF
:10145000EE24C7010C960E947F0BC7010D9669818F
:101460000E947F0BC7010E966A810E947F0BC70105
:101470000F966B810E947F0B8701005F1F4FC80191
:101480006D2D0E947F0BC80101966C2D0E947F0B71
:10149000E7012196CE0164E00E947F0BCE010E94FD
:1014A0009E0B8823D9F781E001C080E0DF91CF91C6
:1014B0001F910F91FF90EF90DF90CF9008950F93C1
:1014C0001F93CF93DF93082F10E00C5F1F4FD02F97
:1014D000CC272196CE0160E10E947F0BCE010E94B5
:1014E0009E0B8823D9F7902F882702966FEF0E94D2
:1014F0007F0BDF91CF911F910F910895CF92DF92D3
:10150000EF92FF920F931F93CF93DF93082FE62E56
:10151000EA01F22E862F8150853010F080E049C01C
:10152000802F0E945F0A10E00C5F1F4FD02ECC244A
:10153000FE28C6016F2D0E947F0BB6E0000F111F21
:10154000BA95E1F7209771F00F5F1F4F000F111F41
:10155000000F111FC8016D2F0E947F0BC80101965B
:101560006C2F18C020910503309106032F5F3F4F69
:1015700030930603209305030F5F1F4F000F111FC9
:10158000000F111FC801632F0E947F0BC801019635
:10159000609105030E947F0B86010F5F1F4FC801FA
:1015A00061E00E947F0BC8010E949E0B8823D9F73F
:1015B00081E0DF91CF911F910F91FF90EF90DF902D
:1015C000CF900895FF920F931F93CF93DF93F82E40
:1015D0008A014115510519F440E050E010C00E9405
:1015E0003A0FDF2DC0E0CF5FDB4FCE0160E40E94F9
:1015F0007F0BCE010E949E0B8823D9F7A801CA0158
:10160000DF91CF911F910F91FF9008956F927F927C
:101610008F929F92BF92CF92DF92EF92FF920F93A1
:101620001F93CF93DF93B82E3B01EA010E94760B04
:101630008C179D0710F08E0104C08B2D0E94760B35
:101640008C01EB2CFF2484E090E0E80EF91EDE2CE8
:10165000CC2453E0852E912C8C0C9D1C8B2D0E944C
:10166000DB0DEC01C4010E949E0B873129F08C3107
:1016700019F000E010E003C0C017D10778F38B2DFC
:10168000B301A8010E94AB0EE6012196CE0160E2F3
:101690000E947F0BCE010E949E0B8823D9F70BC0BE
:1016A000C4010E949E0B882349F48B2D0E945F0A7F
:1016B00000E010E00CC0DE2DCC272296CE010E9467
:1016C0009E0B84FFEDCFCE0160E10E947F0BC8012D
:1016D000DF91CF911F910F91FF90EF90DF90CF900E
:1016E000BF909F908F907F906F900895E82FF0E0CB
:1016F000EE0FFF1FE95EFC4F808191810895282F36
:1017000084B18C6284B92A9A85B1877D85B980E5D8
:101710008CBD2A9880EF8EBD0DB407FEFDCF9EBD17
:101720000DB407FEFDCF2EBD0DB407FEFDCF6EBD7F
:101730000DB407FEFDCF2A9A81E00895282F84B1C9
:101740008C6284B92A9A85B1877D85B980E58CBD84
:101750002A988FE08EBD0DB407FEFDCF9EBD0DB45F
:1017600007FEFDCF2EBD0DB407FEFDCF1EBC0DB490
:1017700007FEFDCF8EB52A9A0895DC0184B18C62F4
:1017800084B92A9A85B1877D85B980E58CBD20E032
:1017900030E090EF19C02A989EBD0DB407FEFDCF32
:1017A000BEBD0DB407FEFDCFAEBD0DB407FEFDCF2F
:1017B000FB01E20FF31F80818EBD0DB407FEFDCF4C
:1017C0002A9A2F5F3F4F11962417350720F3CA013D
:1017D0000895DC0184B18C6284B92A9A85B1877D31
:1017E00085B980E58CBD20E030E09FE01AC02A98E2
:1017F0009EBD0DB407FEFDCFBEBD0DB407FEFDCFEF
:10180000AEBD0DB407FEFDCF1EBC0DB407FEFDCF6F
:101810008EB5FB01E20FF31F80832A9A2F5F3F4FA3
:1018200011962417350718F3CA0108952F923F9295
:101830004F925F926F927F928F929F92AF92BF92E0
:10184000CF92DF92EF92FF920F931F93DF93CF938C
:1018500000D000D0CDB7DEB7182F062F8BE190E077
:10186000612F0E947F0B8AE190E0602F0E947F0B26
:1018700080E090E4909328038093270380E090E633
:101880009093300380932F0367E173E08FE193E03F
:101890009C838B83FFE0CF2EF3E0DF2EE7E0EE2E7C
:1018A000E3E0FE2EAA24BB2466247724882499240E
:1018B00040E050E0E12FF0E0FA83E983202E33246A
:1018C000FB0111821082EB81FC8111821082F0E019
:1018D0006F16F0E27F06DCF589819A81042E02C042
:1018E000959587950A94E2F7837090708130910501
:1018F000A1F0823091051CF4892B39F028C0823088
:10190000910599F0039719F518C080E094E0FB0168
:10191000918380838FEF93E017C080E098E0FB0114
:10192000918380838FEF97E00FC080E090E1FB010F
:10193000918380838FEF9FE007C080E090E2FB01FE
:10194000918380838FEF9FE1F7019183808390E003
:10195000891690E299060CF03EC0C101042E02C027
:10196000959587950A94E2F7837090708130910580
:10197000A9F0823091051CF4892B39F02CC08230FB
:101980009105A9F0039739F51BC080E094E0EB8145
:10199000FC81918380838FEF93E01AC080E098E010
:1019A000EB81FC81918380838FEF97E011C080E011
:1019B00090E1EB81FC81918380838FEF9FE008C0F1
:1019C00080E090E2EB81FC81918380838FEF9FE147
:1019D000F60191838083FB0140805180EB81FC8183
:1019E00000811181A114B104F1F0FA01E95DFC4F0D
:1019F000DA01AB5EBC4F8D919C913291229132966F
:101A0000820F931F91838083FA01E15DFC4FDA011D
:101A1000A35EBC4F8D919C91329122913296820FA0
:101A2000931F918380830894A11CB11C6E5F7F4F2C
:101A30004E5F5F4F8B819C8102969C838B83E2E09B
:101A4000F0E0CE0EDF1EEE0EFF1EF4E0AF16B10486
:101A500029F0640C751C800E911E32CF0F900F90F0
:101A60000F900F90CF91DF911F910F91FF90EF900A
:101A7000DF90CF90BF90AF909F908F907F906F90AE
:101A80005F904F903F902F900895682F80E090E8EE
:101A90000E947F0B089580E80E94450D08950F93E2
:101AA0001F938C0181E090E0F80160810E947F0B20
:101AB00082E090E0F80161810E947F0B83E090E07A
:101AC000F80162810E947F0B84E090E0F80163815D
:101AD0000E947F0B1F910F9108950F931F938C010C
:101AE00085E090E0F80160810E947F0B86E090E045
:101AF000F80161810E947F0B87E090E0F80162812C
:101B00000E947F0B88E090E0F80163810E947F0BC8
:101B10001F910F9108950F931F938C0189E090E01E
:101B2000F80160810E947F0B8AE090E0F8016181FA
:101B30000E947F0B8BE090E0F80162810E947F0B96
:101B40008CE090E0F80163810E947F0B8DE090E0D3
:101B5000F80164810E947F0B8EE090E0F8016581BE
:101B60000E947F0B1F910F9108950F931F938C017B
:101B70008FE090E0F80160810E947F0B80E190E0AF
:101B8000F80161810E947F0B81E190E0F8016281A0
:101B90000E947F0B82E190E0F80163810E947F0B3D
:101BA0001F910F91089590E0982F88278D5F9B4F8C
:101BB0000E949E0B08958F929F92AF92BF92CF92F8
:101BC000DF92EF92FF920F931F93CF93DF9390E0FA
:101BD000982F8827805E9B4F4C015C010894A11CC4
:101BE000B11CC0E0D0E0C4010E949E0BF82EEE2490
:101BF000C5010E949E0B6701C80ED11CC114D104FF
:101C000059F0C4010E949E0B182F00E0C5010E94EC
:101C10009E0BE801C80FD11DCC15DD0521F7CE01C3
:101C2000DF91CF911F910F91FF90EF90DF90CF90B8
:101C3000BF90AF909F908F9008958F929F92AF9298
:101C4000BF92CF92DF92EF92FF920F931F93CF93A9
:101C5000DF9390E00496982F882716E2812E912C2E
:101C6000880E991EB7E2AB2EB12CA80EB91EC0E0AB
:101C7000D0E0C4010E949E0BF82EEE24C5010E9404
:101C80009E0B6701C80ED11CC114D10459F0C401C8
:101C90000E949E0B182F00E0C5010E949E0BE801D8
:101CA000C80FD11DCC15DD0521F7CE01DF91CF91F5
:101CB0001F910F91FF90EF90DF90CF90BF90AF906A
:101CC0009F908F900895CF92DF92EF92FF920F93A3
:101CD0001F93CF93DF937B01E901E82FF0E0EE0F34
:101CE000FF1FDF01A95FBC4F8D919C9148235923B1
:101CF00087E2C82E83E0D82ECE0EDF1ED6012D91AE
:101D00003C91240F351FE95EFC4F0190F081E02DDE
:101D1000CA018C0F9D1FE817F90780F48F01041B7F
:101D2000150BC901A8010E94BD0BC01BD10BF60108
:101D3000808191810E0D1F1DB80101C0C901AE0146
:101D40000E94BD0BDF91CF911F910F91FF90EF90FB
:101D5000DF90CF9008957F928F929F92AF92BF9223
:101D6000CF92DF92EF92FF920F931F93782E4B0149
:101D70005A01E82EFF2484E090E0E80EF91EFE2CC4
:101D8000EE2424E2C22ED12CCE0CDF1CC6010E9410
:101D90009E0B182F00E085E290E0E80EF91EC701C7
:101DA0000E949E0B080F111D872DB401A8019501FB
:101DB0000E94630E0A0D1B1DC601612F0E947F0B3E
:101DC000C701602F0E947F0B1F910F91FF90EF9032
:101DD000DF90CF90BF90AF909F908F907F900895AD
:101DE000CF92DF92EF92FF920F931F93CF93DF93E7
:101DF0007A01E901E82FF0E0EE0FFF1FDF01A15F9C
:101E0000BC4F8D919C91682379234FE2C42E43E00F
:101E1000D42ECE0EDF1ED6012D913C91260F371FFA
:101E2000E15EFC4F0190F081E02DCE01860F971FFF
:101E3000E817F90788F48F01061B170BC901B701D2
:101E4000A8010E94E90BC01BD10BF6018081918192
:101E50000E0D1F1DB80102C0C901B701AE010E94DD
:101E6000E90BDF91CF911F910F91FF90EF90DF90E1
:101E7000CF9008957F928F929F92AF92BF92CF9210
:101E8000DF92EF92FF920F931F93782E4B015A012E
:101E9000E82EFF2484E090E0E80EF91EFE2CEE24EC
:101EA00068E2C62ED12CCE0CDF1CC6010E949E0B10
:101EB000182F00E089E290E0E80EF91EC7010E94A9
:101EC0009E0B080F111D872DB801A40195010E94DA
:101ED000F00E0A0D1B1DC601612F0E947F0BC7016A
:101EE000602F0E947F0B1F910F91FF90EF90DF906A
:101EF000CF90BF90AF909F908F907F9008958091EA
:101F0000630390916403A0916503B0916603019609
:101F1000A11DB11D8093630390936403A093650397
:101F2000B093660308958091670390916803A09130
:101F30006903B0916A030196A11DB11D80936703E7
:101F400090936803A0936903B0936A030895CF92B6
:101F5000EF920F9387E393E06EE04FE020E101E121
:101F600052E1E52E33E1C32E0E943D088AE493E05E
:101F700068E047E00E946F068CE593E06FE772E04F
:101F800040E550E00E9472080F91EF90CF900895C5
:101F90008F929F92AF92BF92CF92DF92EF92FF9279
:101FA0000F931F93CF93DF937B018C01842E20E04E
:101FB00030E040E050E00E947B1E88234CF48CE52A
:101FC00093E06DE20E94081D17FB109517F910951C
:101FD000C801B7010E94E71E9B01AC01EB018CE533
:101FE00093E0B9010E94F91D882009F479C08CE5BD
:101FF00093E060E071E00E94101D982C61E0A62E35
:10200000B12CC12CD12CC601B5012AE030E040E052
:1020100050E00E9431205B016C019A94A1F7C80145
:10202000B70120E030E040E050E00E94CA1F9E016E
:10203000442737FD4095542F88234CF0CA01B9013D
:102040000E941A1F9B01AC01C801B70106C0CA015A
:10205000B9010E941A1FA80197010E94161E7B0158
:102060008C01C601B5010E94181F9B01AC01C8017B
:10207000B7010E94CE1F0E94EC1ED62EE72EF82E2E
:10208000092F182D1150262F372F482F592FC901EE
:10209000DA01BC01CD0101C011502AE030E040E07E
:1020A00050E00E946320C901DA01BC01CD01611535
:1020B00071058105910581F707C08CE593E062E029
:1020C00071E00E94101D11501123B9F78CE593E0C7
:1020D0004D2D5E2D6F2D702F2AE030E00E94011EE5
:1020E000DF91CF911F910F91FF90EF90DF90CF90F4
:1020F000BF90AF909F908F9008958F929F92AF92D4
:10210000BF92CF92DF92EF92FF920F931F93CF93E4
:10211000DF937B018C01842E20E030E040E050E032
:102120000E947B1E88234CF487E393E06DE20E94BB
:10213000081D17FB109517F91095C801B7010E94EB
:10214000E71E9B01AC01EB0187E393E0B9010E941C
:10215000F91D882009F479C087E393E060E071E01D
:102160000E94101D982C71E0A72EB12CC12CD12CEF
:10217000C601B5012AE030E040E050E00E94312085
:102180005B016C019A94A1F7C801B70120E030E02F
:1021900040E050E00E94CA1F9E01442737FD409551
:1021A000542F88234CF0CA01B9010E941A1F9B01C9
:1021B000AC01C801B70106C0CA01B9010E941A1FCB
:1021C000A80197010E94161E7B018C01C601B50172
:1021D0000E94181F9B01AC01C801B7010E94CE1FCD
:1021E0000E94EC1ED62EE72EF82E092F182D115026
:1021F000262F372F482F592FC901DA01BC01CD01F5
:1022000001C011502AE030E040E050E00E9463201D
:10221000C901DA01BC01CD01611571058105910586
:1022200081F707C087E393E062E071E00E94101D30
:1022300011501123B9F787E393E04D2D5E2D6F2DDB
:10224000702F2AE030E00E94011EDF91CF911F9194
:102250000F91FF90EF90DF90CF90BF90AF909F9045
:102260008F9008956F927F928F929F92AF92BF92BC
:10227000CF92DF92EF92FF920F931F937B018C011D
:1022800087E060E00E94B21A80916303909164033A
:10229000A0916503B09166030A97A105B1050CF002
:1022A0004BC18091670390916803A0916903B0913D
:1022B0006A030A97A105B1050CF03EC110926303B1
:1022C00010926403109265031092660310926703E4
:1022D000109268031092690310926A0363C110920E
:1022E00063031092640310926503109266038CE5F9
:1022F00093E064E071E00E94101D20E0E2162AECF9
:10230000F2062AE902072BE312079CF58CE593E01D
:1023100062E071E00E94101D80E0E81681EEF80690
:1023200085EF080785E0180724F58CE593E062E067
:1023300071E00E94101D20E8E21626E9F20628E965
:10234000020720E01207ACF48CE593E062E071E054
:102350000E94101D80E4E81682E4F8068FE008076A
:1023600080E0180734F48CE593E062E071E00E94AD
:10237000101D8CE593E0B801A7010E94D21D8CE5E9
:1023800093E060E371E00E94101DC601B50128EEE4
:1023900033E040E050E00E9431200E941A1F20E00C
:1023A00030EA4EEB55E40E947F1E44E00E94C80FC5
:1023B0008CE593E06BE371E00E94101D8CE593E0E7
:1023C00066E671E00E942F1D8CE593E060E771E006
:1023D0000E942F1D8CE593E06EE871E00E942F1D96
:1023E0008CE593E00E94181D80916703909168032B
:1023F000A0916903B0916A030297A105B1050CF49D
:1024000085C01092670310926803109269031092BE
:102410006A038CE593E062EA71E00E94101D20E0FF
:10242000E2162AECF2062AE902072BE312079CF5D2
:102430008CE593E062E071E00E94101D80E0E816F8
:1024400081EEF80685EF080785E0180724F58CE58E
:1024500093E062E071E00E94101D20E8E21626E998
:10246000F20628E9020720E01207ACF48CE593E0BD
:1024700062E071E00E94101D80E4E81682E4F80634
:102480008FE0080780E0180734F48CE593E062E001
:1024900071E00E94101D8CE593E0B801A7010E9435
:1024A000D21D8CE593E060E371E00E94101DC40131
:1024B000B30128EE33E040E050E00E9431200E945A
:1024C0001A1F20E030EA4EEB55E40E947F1E44E0E4
:1024D0000E94C80F8CE593E06BE371E00E94101D31
:1024E0008CE593E066E671E00E942F1D8CE593E099
:1024F00060E771E00E942F1D8CE593E06EE871E0CB
:102500000E942F1D8CE593E00E94181D0E94121A54
:102510007B018C018CE593E00E94C908892BD1F5E1
:102520000E94121A6E197F09800B910B6858734133
:102530008040904078F5EECF68EE73E080E090E068
:102540000E94201AA0906303B0906403C0906503BA
:10255000D090660360906703709068038090690371
:1025600090906A038CE593E00E94310964E670E084
:1025700080E090E00E94201A8091630390916403B0
:10258000A0916503B09166030297A105B1050CF017
:10259000A6CE2ACF8CE593E00E94F7088CE593E065
:1025A0000E9487081F910F91FF90EF90DF90CF90CE
:1025B000BF90AF909F908F907F906F9008952F92D3
:1025C0003F924F925F926F927F928F929F92AF92C3
:1025D000BF92CF92DF92EF92FF920F931F93DF9300
:1025E000CF93CDB7DEB7CD56D0400FB6F894DEBF4F
:1025F0000FBECDBF87E393E00E94830787E393E09C
:102600006EEC71E00E94101D00E010E07E01089465
:10261000E11CF11C8AE493E00E9475058823D1F344
:102620008AE493E00E944405982F8D3009F47DC31D
:102630008A3009F47AC3833009F477C3823009F40D
:1026400074C380538A3010F4982F05C0892F8154A9
:10265000863008F49753F701E00FF11F90830F5F66
:102660001F4F0C301105B4F20C30110509F05DC399
:10267000FE013596AE961CAE1DAE1EAE1FAEAE97D9
:102680009E01255F3F4FAE964CAD5DAD6EAD7FAD0B
:10269000AE97A4E0440F551F661F771FAA95D1F788
:1026A0008191992787FD9095A92FB92F480F591F20
:1026B0006A1F7B1FAE964CAF5DAF6EAF7FAFAE971C
:1026C000E217F30701F78CE593E00E9431098CE5EE
:1026D00093E069ED71E00E94101DAE966CAD7DAD8A
:1026E0008EAD9FADAE9760507A4C8A499B430CF0FB
:1026F00039C08CE593E062E071E00E94101DAE9657
:102700002CAD3DAD4EAD5FADAE972050314E454F37
:10271000554044F58CE593E062E071E00E94101DA5
:10272000AE968CAD9DADAEADBFADAE97805896491F
:10273000A849B040BCF48CE593E062E071E00E94EF
:10274000101DAE962CAD3DAD4EAD5FADAE97205495
:1027500032444F40504034F48CE593E062E071E045
:102760000E94101D8CE593E0AE964CAD5DAD6EAD54
:102770007FADAE970E94D21D8CE593E066E671E0D6
:102780000E942F1D8CE593E060E771E00E942F1DF1
:102790008CE593E06EE871E00E942F1D8CE593E0DC
:1027A0000E94181D0E94121A7B018C018CE593E097
:1027B0000E94C908892B09F0AFC20E94121A6E1933
:1027C0007F09800B910B685873418040904008F05E
:1027D000A3C2ECCF8CE593E00E94D5080D3711051C
:1027E00014F0F70180830F5F1F4F0894E11CF11C68
:1027F0008CE593E00E94C908892B61F7FE01EF5632
:10280000F040E00FF11F10828CE593E00E94F70882
:102810008CE593E00E948708CE010E9663EF71E08D
:102820000E94F90180E090E063EF71E00E94F901FD
:10283000AA969FAF8EAFAA97DC018C918F3309F0D7
:1028400066C087E393E00E94830787E393E065EF28
:1028500071E00E94101D87E393E060E041E00E9478
:102860005407AE962CAD3DAD4EAD5FADAE9720504A
:102870003A4C4A495B430CF039C087E393E062E08D
:1028800071E00E94101DAE968CAD9DADAEADBFAD9A
:10289000AE978050914EA54FB54044F587E393E045
:1028A00062E071E00E94101DAE962CAD3DAD4EADC4
:1028B0005FADAE972058364948495040BCF487E395
:1028C00093E062E071E00E94101DAE968CAD9DAD6C
:1028D000AEADBFADAE9780549244AF40B04034F43B
:1028E00087E393E062E071E00E94101D87E393E0CC
:1028F000AE964CAD5DAD6EAD7FADAE970E94D21D74
:1029000060ED77E080E090E00E94201A0EC2AA9667
:102910008EAD9FADAA9761E072E00E94F9010E941E
:10292000F501A8966CAF7DAF8EAF9FAFA89780E002
:1029300090E061E072E00E94F901A4969FAF8EAF33
:10294000A497A396EFADA397A496FFADA497DF013C
:102950000D900020E9F71197AE1BBF0BA80FB91F10
:10296000119780E28C93109263031092640310928B
:102970006503109266031092670310926803109229
:10298000690310926A0387E061E00E94B21A0E9414
:10299000121AA2966CAF7DAF8EAF9FAFA29721E0C7
:1029A00030E06E963FAF2EAF6E970F2EF0E0AF2E59
:1029B000F0E0BF2EF0E0CF2EF0E0DF2EF02D6C9691
:1029C0001FAE1EAE6C9764C10E94121AA2962CAD67
:1029D0003DAD4EAD5FADA297621B730B840B950BA3
:1029E000695B7B408040904038F180916303909117
:1029F0006403A0916503B09166030297A105B10538
:102A0000BCF48091670390916803A0916903B09131
:102A10006A030297A105B1055CF46E961FAE1EAE67
:102A20006E9741E050E06C965FAF4EAF6C9704C07C
:102A30006E961FAE1EAE6E970E94121A6A966CAF0B
:102A40007DAF8EAF9FAF6A9760916303709164030F
:102A5000809165039091660366966CAF7DAF8EAFF3
:102A60009FAF66978091670390916803A091690377
:102A7000B0916A0362968CAF9DAFAEAFBFAF629765
:102A8000BDC0609063037090640380906503909074
:102A9000660320906703309068034090690350906C
:102AA0006A03609163037091640380916503909160
:102AB0006603E0906703F09068030091690310914A
:102AC0006A030E941A1F20916B0330916C0340919E
:102AD0006D0350916E030E94CE1F20E030EA4EEB52
:102AE00055E40E947F1E5B016C01C801B7010E9482
:102AF0001A1F20916F033091700340917103509120
:102B000072030E94CE1F20E030EA4EEB55E40E9493
:102B10007F1E9B01AC01C601B5010E94171E5B011F
:102B20006C0187E393E00E94830787E393E0A49618
:102B30006EAD7FADA4970E94101D87E393E063E024
:102B400072E00E94101DA8966CAD7DAD8EAD9FAD5C
:102B5000A897A60195010E94161E42E00E947D10D2
:102B600087E393E066E072E00E94101D87E393E044
:102B700060E041E00E945407C401B30128EE33E055
:102B800040E050E00E9431200E941A1F20E030EA0D
:102B90004EEB55E40E947F1E7B018C01C201B10106
:102BA00028EE33E040E050E00E9431200E941A1FDE
:102BB00020E030EA4EEB55E40E947F1E9B01AC0101
:102BC000C801B7010E94171E0E94E71E9B01AC01BD
:102BD00087E393E0B9010E94F91D87E393E068E081
:102BE00072E00E94101DC601B50142E00E947D10F6
:102BF00068EC70E080E090E00E94201A0E94121AB7
:102C00006A962CAD3DAD4EAD5FAD6A97621B730BFE
:102C1000840B950B685E73408040904008F431CF80
:102C20008091630390916403A0916503B091660362
:102C300066964CAD5DAD6EAD7FAD6697841B950B12
:102C4000A60BB70B0297A105B10514F58091670398
:102C500090916803A0916903B0916A0362962CADCC
:102C60003DAD4EAD5FAD6297821B930BA40BB50BD0
:102C70000297A105B10564F46E964EAD5FAD6E97F7
:102C8000452B31F461E070E06C967FAF6EAF6C97CE
:102C9000A8966CAD7DAD8EAD9FADA897A6019501B0
:102CA0000E94CA1F18163CF46C968EAD9FAD6C97AF
:102CB000892B09F489CEA4968EAD9FADA4970E946E
:102CC0009D01AA968EAD9FADAA970E949D01CE014F
:102CD0000E960E949D01A8966CAD7DAD8EAD9FAD08
:102CE000A89720E030E040E050E00E947B1E88235F
:102CF00034F468EE73E080E090E00E94201AAE9613
:102D00006CAD7DAD8EAD9FADAE970E94321187E365
:102D100093E00E94830709C0E1E9EE2EEFEFFE2E5B
:102D2000EC0EFD1E00E010E063CDC359DF4F0FB67F
:102D3000F894DEBF0FBECDBFCF91DF911F910F91F1
:102D4000FF90EF90DF90CF90BF90AF909F908F90CB
:102D50007F906F905F904F903F902F9008950F93CA
:102D60001F9387E393E00E94830787E393E06FE07C
:102D700072E00E94101D109263031092640310927F
:102D80006503109266031092670310926803109215
:102D9000690310926A0387E061E00E94B21A87E338
:102DA00093E060E041E00E945407809163039091BA
:102DB0006403A0916503B0916603855D9741A040CF
:102DC000B040C4F060916303709164038091650327
:102DD000909166030E941A1F20E030EA4EEB55E402
:102DE0000E947F1E43E00E947D1087E393E06BE129
:102DF00072E01DC06091630370916403809165036C
:102E00009091660328EE33E040E050E00E943120CC
:102E10000E941A1F20E030EA4EEB55E40E947F1E0C
:102E200041E00E947D1087E393E06FE172E00E9431
:102E3000101D87E393E068E041E00E945407809111
:102E4000670390916803A0916903B0916A03855D5F
:102E50009741A040B040C4F060916703709168034F
:102E60008091690390916A030E941A1F20E030EA62
:102E70004EEB55E40E947F1E43E00E947D1087E3E5
:102E800093E06BE172E01DC060916703709168038D
:102E90008091690390916A0328EE33E040E050E0AE
:102EA0000E9431200E941A1F20E030EA4EEB55E4C8
:102EB0000E947F1E41E00E947D1087E393E06FE156
:102EC00072E00E94101D86E00E94FF1A8C0168ECDF
:102ED00070E080E090E00E94201A012B09F45FCF9F
:102EE00060E070E080E090E00E9432111F910F914D
:102EF0000895CF92DF92EF92FF920F931F93DF938B
:102F0000CF93CDB7DEB7C054D0400FB6F894DEBF34
:102F10000FBECDBF87E393E060E142E020E00E9476
:102F20008B0787E393E00E9483078CE593E00E9480
:102F3000F7088CE593E00E9487088CE593E00E94F7
:102F40003109882351F468EE73E080E090E00E943C
:102F5000201A8CE593E00E94310984EA93E062E252
:102F600072E00E942F1D8CE593E062E372E00E9404
:102F70002F1D8CE593E060E771E00E942F1D8CE52A
:102F800093E06EE871E00E942F1D8CE593E00E94B3
:102F9000181D0E94121A7B018C018CE593E00E949F
:102FA000C908892B09F006C10E94121A6E197F09FF
:102FB000800B910B685873418040904008F0FAC034
:102FC000ECCF8CE593E00E94D508D82E84EA93E0FC
:102FD0006D2D0E94081D0D37110514F0D701DC92EC
:102FE0000F5F1F4F0894E11CF11C8CE593E00E94D9
:102FF000C908892B31F7FE01EC57F040E00FF11FB3
:10300000108284EA93E08E010F5F1F4FB8010E9487
:103010002F1D8CE593E00E94F7088CE593E00E9459
:10302000870887E393E00E948307C80163EF71E09C
:103030000E94F90180E090E063EF71E00E94F901E5
:1030400061E072E00E94F9017C01C8010E949D01CB
:1030500088E592E0B7010E94FE01009781F580E0CB
:1030600090E061E072E00E94F9010E94F50180E0C9
:1030700090E061E072E00E94F9018C0180E090E054
:103080006AE572E00E94F9010E94F50160936B030A
:1030900070936C0380936D0390936E0387E393E0CA
:1030A0006FE70E94081D87E393E0B8010E94101D9E
:1030B00080E090E061E072E00E94F9017C01C701CC
:1030C0006CE572E00E94FE010097C9F580E090E097
:1030D00061E072E00E94F9010E94F50180E090E059
:1030E00061E072E00E94F901182F092F80E090E062
:1030F0006AE572E00E94F9010E94F50160936F0396
:10310000709370038093710390937203E12FF02FFB
:10311000DF010D900020E9F7EA1BE05F87E393E011
:103120006E2F41E00E94540787E393E0612F702FD8
:103130000E94101D87E393E06EE70E94081D0E9425
:10314000121A7B018C01CC24DD2480E69AEEA0E0EB
:10315000B0E0E80EF91E0A1F1B1F1BC08AE493E0B3
:103160000E944405029729F40E94DF1291E0C92EC3
:10317000D12C86E00E94FF1A892B29F40E94AF16F9
:1031800081E0C82ED12C68EC70E080E090E00E94D5
:10319000201A0E94121A6E157F0580079107C8F445
:1031A000C114D104B1F48AE493E00E947505882328
:1031B00001F3D4CF84EA93E06EE572E00E942F1D04
:1031C000B4E8EB2EBFEFFB2EEC0EFD1E00E010E08E
:1031D0000CCF64E670E080E090E00E94201AC05CB2
:1031E000DF4F0FB6F894DEBF0FBECDBFCF91DF919A
:1031F0001F910F91FF90EF90DF90CF90089582E0A4
:1032000060E00E94921A82E061E00E94B21A80E0BF
:103210006FE77FE042E050E00E944D1983E060E0FC
:103220000E94921A83E061E00E94B21A81E063E991
:103230007FE042E050E00E944D1987E061E00E948B
:10324000921A87E060E00E94B21A86E060E00E9475
:10325000921A86E061E00E94B21A84E093E065E78A
:1032600072E04BE752E00E94D0098AE493E040E824
:1032700055E260E070E00E94860484EA93E040E852
:1032800055E260E070E00E948B1B08950E94581A7E
:103290000E94FF180E947917FDCF823000F5E82FB9
:1032A000F0E0EE0FFF1FED58FC4F71836083882321
:1032B00019F08130A1F408C0809169008C7F842BC3
:1032C00080936900E89A089580916900440F551F22
:1032D000440F551F837F842B80936900E99A0895DA
:1032E0001F920F920FB60F9211242F933F934F937B
:1032F0005F936F937F938F939F93AF93BF93EF935E
:10330000FF938091730390917403892B29F0E091CE
:103310007303F09174030995FF91EF91BF91AF9101
:103320009F918F917F916F915F914F913F912F91DD
:103330000F900FBE0F901F9018951F920F920FB60F
:103340000F9211242F933F934F935F936F937F932B
:103350008F939F93AF93BF93EF93FF9380917503E8
:1033600090917603892B29F0E0917503F091760313
:103370000995FF91EF91BF91AF919F918F917F91AF
:103380006F915F914F913F912F910F900FBE0F90D2
:103390001F9018951F920F920FB60F9211242F9322
:1033A0003F938F939F93AF93BF9380917B039091B3
:1033B0007C03A0917D03B0917E0330917F03019641
:1033C000A11DB11D232F2D5F2D3720F02D57019604
:1033D000A11DB11D20937F0380937B0390937C03F9
:1033E000A0937D03B0937E0380917703909178033F
:1033F000A0917903B0917A030196A11DB11D80932C
:10340000770390937803A0937903B0937A03BF91E5
:10341000AF919F918F913F912F910F900FBE0F9081
:103420001F9018958FB7F89420917B0330917C03FF
:1034300040917D0350917E038FBFB901CA01089569
:10344000EF92FF920F931F937B018C018FB7F8943B
:1034500040917B0350917C0360917D0370917E03CA
:103460008FBF2FB7F89480917B0390917C03A0913C
:103470007D03B0917E032FBF841B950BA60BB70B6A
:10348000E816F9060A071B0760F71F910F91FF90D6
:10349000EF900895019759F0FC01EE0FFF1FEE0F1A
:1034A000FF1F32978FB7F8943197F1F78FBF0895C8
:1034B000789484B5826084BD84B5816084BD85B50F
:1034C000826085BD85B5816085BDEEE6F0E08081D6
:1034D00081608083E1E8F0E0808182608083808188
:1034E00081608083E0E8F0E0808181608083E1EBAF
:1034F000F0E0808184608083E0EBF0E08081816097
:103500008083EAE7F0E0808184608083808182604C
:103510008083808181608083808180688083109235
:10352000C1000895282F30E0C901865D9E4FFC013F
:1035300094912A5E3E4FF9018491882391F0E82FFF
:10354000F0E0EE0FFF1FE850FF4FA591B491662306
:1035500029F48C91909589238C9308958C91892BD3
:103560008C930895482F50E0CA01825C9E4FFC0165
:103570002491CA01865D9E4FFC0194914A5E5E4F84
:10358000FA0134913323D1F1222331F1233021F494
:10359000809180008F7705C0243031F480918000C5
:1035A0008F7D8093800018C0213019F484B58F7707
:1035B00004C0223021F484B58F7D84BD0DC0263037
:1035C00021F48091B0008F7705C0273029F48091D5
:1035D000B0008F7D8093B000E32FF0E0EE0FFF1F6F
:1035E000EE5FFE4FA591B491662329F48C919095DE
:1035F00089238C9308958C91892B8C930895682F3F
:1036000070E0CB01825C9E4FFC012491CB01865D72
:103610009E4FFC0144916A5E7E4FFB019491992379
:1036200019F420E030E038C0222331F1233021F4B6
:10363000809180008F7705C0243031F48091800024
:103640008F7D8093800018C0213019F484B58F7766
:1036500004C0223021F484B58F7D84BD0DC0263096
:1036600021F48091B0008F7705C0273029F4809134
:10367000B0008F7D8093B000892F90E0880F991F54
:10368000845F9E4FFC01A591B4918C9120E030E0C5
:10369000842311F021E030E0C90108951F920F92B8
:1036A0000FB60F9211242F933F934F935F936F9315
:1036B0007F938F939F93AF93BF93EF93FF9340912B
:1036C000C600E091A003F091A103CF01019660E252
:1036D00070E00E9450209C018091A2039091A3036E
:1036E0002817390739F0E058FC4F40833093A10385
:1036F0002093A003FF91EF91BF91AF919F918F9184
:103700007F916F915F914F913F912F910F900FBEDD
:103710000F901F9018955F926F927F928F929F9259
:10372000AF92BF92CF92DF92EF92FF920F931F93CF
:10373000CF93DF93EC013A014B01413482E4580707
:103740008FE0680780E078070CF07FC060E874E8DD
:103750008EE190E0A40193010E9485202150304029
:1037600040405040CA01B90122E030E040E050E062
:103770000E94852059016A01A60195012095309586
:103780004095509594E0220F331F441F551F9A9582
:10379000D1F760E074E284EF90E00E948520CA01D6
:1037A000B9012FEF30E040E050E00E943120A40149
:1037B00093010E948520C90181509F4F1816190658
:1037C0001CF4522E5A9403C055245394521A60E0AC
:1037D00079E08DE390E0A40193010E9485202150BF
:1037E000304040405040CA01B90122E030E040E0A2
:1037F00050E00E948520209530954095509583E0BB
:10380000220F331F441F551F8A95D1F760E074E2E1
:1038100084EF90E00E948520CA01B9012FEF30E0CB
:1038200040E050E00E943120A40193010E948520D5
:10383000C90181509F4F181619061CF4822F815020
:1038400002C081E0821B851500F5E885F98581E0DD
:1038500090E00A8802C0880F991F0A94E2F78083DB
:1038600060E079E08DE390E0A40193010E9485205F
:103870002150304040405040CA01B90122E030E0C0
:1038800040E050E00E94852004C0E885F985108260
:103890009501EC81FD813083EE81FF812083EA85F3
:1038A000FB85208141E050E0CA010E8402C0880FF0
:1038B000991F0A94E2F7282B2083EA85FB85208153
:1038C000CA010F8402C0880F991F0A94E2F7282BBF
:1038D0002083EA85FB858081088802C0440F551F3C
:1038E0000A94E2F7842B8083DF91CF911F910F918F
:1038F000FF90EF90DF90CF90BF90AF909F908F9010
:103900007F906F905F900895FC01A085B18521891B
:103910008C9190E0022E02C0959587950A94E2F76B
:1039200080FFF6CF0484F585E02D608308958DEA4D
:1039300092E09093A5038093A40380E893E0909392
:10394000A7038093A60385EC90E09093A90380934E
:10395000A80384EC90E09093AB038093AA0380ECDF
:1039600090E09093AD038093AC0381EC90E0909352
:10397000AF038093AE0386EC90E09093B103809305
:10398000B00384E08093B20383E08093B30387E0C5
:103990008093B40385E08093B50381E08093B60300
:1039A00008950F931F93CF93DF938C01EB0109C010
:1039B0002196D801ED91FC910190F081E02DC80194
:1039C000099568816623A1F7DF91CF911F910F912F
:1039D0000895EF92FF920F931F93CF93DF938C0183
:1039E0007B01EA010CC0D7016D917D01D801ED91F9
:1039F000FC910190F081E02DC80109952197209755
:103A000091F7DF91CF911F910F91FF90EF90089563
:103A1000DC01ED91FC910190F081E02D0995089574
:103A2000DC01ED91FC910280F381E02D0995089570
:103A30000F931F938C01DC01ED91FC910190F081BB
:103A4000E02D6DE00995D801ED91FC910190F08198
:103A5000E02DC8016AE009951F910F9108950F9319
:103A60001F938C010E94101DC8010E94181D1F91F8
:103A70000F9108952F923F924F925F926F927F9293
:103A80008F929F92AF92BF92CF92DF92EF92FF926E
:103A90000F931F93DF93CF93CDB7DEB7A0970FB6E9
:103AA000F894DEBF0FBECDBF1C016A017B0141153A
:103AB00051056105710549F4DC01ED91FC9101901E
:103AC000F081E02D60E3099554C0882499245401C5
:103AD000422E55246624772401E010E00C0F1D1FB0
:103AE000080D191DC701B601A30192010E946320B0
:103AF000F80160830894811C911CA11CB11CC701B2
:103B0000B601A30192010E946320C901DA016C0190
:103B10007D01C114D104E104F104F1F681E0E82E45
:103B2000F12CEC0EFD1EE80CF91C3E010894611C02
:103B3000711CD501C4010197A109B1096C01C81814
:103B4000D90814C0F601EE0DFF1D60816A3010F433
:103B5000605D01C0695CD101ED91FC910190F08143
:103B6000E02DC10109950894E108F1086E147F0465
:103B700049F7A0960FB6F894DEBF0FBECDBFCF9128
:103B8000DF911F910F91FF90EF90DF90CF90BF904A
:103B9000AF909F908F907F906F905F904F903F90ED
:103BA0002F900895EF92FF920F931F93CF93DF937F
:103BB000EC017A018B0177FF0FC0E881F981019058
:103BC000F081E02D6DE2099510950095F094E09458
:103BD000E11CF11C011D111DCE01B801A7012AE055
:103BE0000E943A1DDF91CF911F910F91FF90EF90AE
:103BF0000895AB01662757FD6095762F0E94D21D70
:103C00000895DC012115310541F4ED91FC910190FD
:103C1000F081E02D642F099508952A30310519F4BB
:103C20000E94D21D08950E943A1D08955058BB2746
:103C3000AA270ED075C166D130F06BD120F031F4D7
:103C40009F3F11F41EF45BC10EF4E095E7FB51C1F8
:103C5000E92F77D180F3BA176207730784079507B6
:103C600018F071F49EF58FC10EF4E0950B2EBA2F6B
:103C7000A02D0B01B90190010C01CA01A001112472
:103C8000FF27591B99F0593F50F4503E68F11A161E
:103C9000F040A22F232F342F4427585FF3CF4695AF
:103CA00037952795A795F0405395C9F77EF41F16D1
:103CB000BA0B620B730B840BBAF09150A1F0FF0F9B
:103CC000BB1F661F771F881FC2F70EC0BA0F621F87
:103CD000731F841F48F4879577956795B795F79577
:103CE0009E3F08F0B3CF9395880F08F09927EE0F09
:103CF000979587950895D9D008F481E008950CD060
:103D00000FC107D140F0FED030F021F45F3F19F031
:103D1000F0C0511139C1F3C014D198F39923C9F3FC
:103D20005523B1F3951B550BBB27AA2762177307C1
:103D3000840738F09F5F5F4F220F331F441FAA1F75
:103D4000A9F333D00E2E3AF0E0E830D09150504035
:103D5000E695001CCAF729D0FE2F27D0660F771FE3
:103D6000881FBB1F261737074807AB07B0E809F0C5
:103D7000BB0B802DBF01FF2793585F4F2AF09E3F5A
:103D8000510568F0B6C000C15F3FECF3983EDCF32C
:103D9000869577956795B795F7959F5FC9F7880FD3
:103DA000911D9695879597F90895E1E0660F771F25
:103DB000881FBB1F621773078407BA0720F0621BB6
:103DC000730B840BBA0BEE1F88F7E095089504D0AF
:103DD0006894B111D9C00895BCD088F09F5790F075
:103DE000B92F9927B751A0F0D1F0660F771F881F20
:103DF000991F1AF0BA95C9F712C0B13081F0C3D03B
:103E0000B1E00895C0C0672F782F8827B85F39F0D8
:103E1000B93FCCF3869577956795B395D9F73EF47E
:103E200090958095709561957F4F8F4F9F4F089526
:103E3000E89409C097FB3EF4909580957095619544
:103E40007F4F8F4F9F4F9923A9F0F92F96E9BB27FA
:103E50009395F695879577956795B795F111F8CF76
:103E6000FAF4BB0F11F460FF1BC06F5F7F4F8F4FE1
:103E70009F4F16C0882311F096E911C0772321F0D7
:103E80009EE8872F762F05C0662371F096E8862F6F
:103E900070E060E02AF09A95660F771F881FDAF7C6
:103EA000880F9695879597F90895990F0008550FF3
:103EB000AA0BE0E8FEEF16161706E807F907C0F0B0
:103EC00012161306E407F50798F0621B730B840BB8
:103ED000950B39F40A2661F0232B242B252B21F492
:103EE00008950A2609F4A140A6958FEF811D811D32
:103EF000089597F99F6780E870E060E008959FEF6C
:103F000080EC089500240A94161617061806090670
:103F1000089500240A94121613061406050608953F
:103F2000092E0394000C11F4882352F0BB0F40F4C7
:103F3000BF2B11F460FF04C06F5F7F4F8F4F9F4F07
:103F4000089557FD9058440F551F59F05F3F71F089
:103F50004795880F97FB991F61F09F3F79F08795F0
:103F60000895121613061406551FF2CF4695F1DF79
:103F700008C0161617061806991FF1CF8695710509
:103F8000610508940895E894BB2766277727CB013D
:103F900097F908958ADF08F48FEF08950BD0C0CF0A
:103FA000B1DF28F0B6DF18F0952309F0A2CFA7CF34
:103FB0001124EACFC6DFA0F3959FD1F3950F50E00F
:103FC000551F629FF001729FBB27F00DB11D639FCB
:103FD000AA27F00DB11DAA1F649F6627B00DA11D71
:103FE000661F829F2227B00DA11D621F739FB00D17
:103FF000A11D621F839FA00D611D221F749F332787
:10400000A00D611D231F849F600D211D822F762F1F
:104010006A2F11249F5750408AF0E1F088234AF01C
:10402000EE0FFF1FBB1F661F771F881F9150504068
:10403000A9F79E3F510570F05CCFA6CF5F3FECF330
:10404000983EDCF3869577956795B795F795E79554
:104050009F5FC1F7FE2B880F911D9695879597F965
:104060000895629FD001739FF001829FE00DF11DC2
:10407000649FE00DF11D929FF00D839FF00D749FE2
:10408000F00D659FF00D9927729FB00DE11DF91F8E
:10409000639FB00DE11DF91FBD01CF0111240895EB
:1040A00097FB092E07260AD077FD04D049D006D009
:1040B00000201AF4709561957F4F0895F6F790955A
:1040C00081959F4F0895A1E21A2EAA1BBB1BFD01EB
:1040D0000DC0AA1FBB1FEE1FFF1FA217B307E407E7
:1040E000F50720F0A21BB30BE40BF50B661F771F3F
:1040F000881F991F1A9469F760957095809590951F
:104100009B01AC01BD01CF01089597FB092E052647
:104110000ED057FD04D0D7DF0AD0001C38F45095DC
:104120004095309521953F4F4F4F5F4F0895F6F7DB
:1041300090958095709561957F4F8F4F9F4F089513
:10414000AA1BBB1B51E107C0AA1FBB1FA617B707BD
:1041500010F0A61BB70B881F991F5A95A9F78095D9
:104160009095BC01CD010895EE0FFF1F0590F491CD
:10417000E02D0994911106C0803219F089508550C4
:10418000D0F708959927882708952F923F924F924C
:104190005F926F927F928F929F92AF92BF92CF92D7
:1041A000DF92EF92FF920F931F93CF93DF93CDB7E0
:1041B000DEB7CA1BDB0B0FB6F894DEBF0FBECDBF58
:1041C00009942A88398848885F846E847D848C8429
:1041D0009B84AA84B984C884DF80EE80FD800C8132
:1041E0001B81AA81B981CE0FD11D0FB6F894DEBF15
:0C41F0000FBECDBFED010895F894FFCF85
:1041FC002E003000474554202F707369752F636F64
:10420C006D6D2E7068703F7472616E73616374694A
:10421C006F6E267461703D4126666F6249443D00A5
:10422C00267175616E746974793D002670617373C3
:10423C00776F72643D3735633666303331363164AF
:10424C0030323032303130303034313463643135E7
:10425C0030316639660020485454502F312E3100CD
:10426C00757365722D6167656E743A206172647541
:10427C00696E6F2F6B656773657276657200486F38
:10428C0073743A206B65677365727665722E636F13
:10429C006D00474554202F707369752F636F6D6DDA
:1042AC002E7068703F7472616E73616374696F6EA7
:1042BC00267461703D4226666F6249443D0052652A
:1042CC006164696E672E2E2E00474554202F707343
:1042DC0069752F636F6D6D2E7068703F666F6249E4
:1042EC00443D000A00556E6B6E6F776E20464F4250
:1042FC00002C0028240029006D4C202D2024005671
:10430C00616C766573204F70656E004C2020006DDB
:10431C004C0053656E64696E6720526571756573E8
:10432C007400474554202F707369752F636F6D6D42
:10433C002E7068703F6B6567737461747573204879
:10434C005454502F312E310041002000420047655B
:10435C007474696E672077656220646174610020F3
:10436C0000BD030000DEADBEEFFEEDC0A8010B6189
:10437C004AF990000000009B05D11CE91C000000CC
:10438C00004207D11CE91C0000400014005400003E
:10439C000000000D092209060900000000841CD150
:0443AC001CE91C00EC
:00000001FF
